:0400000013EF03F007
:1000080000C018F001C017F00CC016F00DC015F0B4
:10001800F2A035D081CF01F0340E0C6EF10E0D6ECA
:100028000D2EFED70C2EFCD70000000001AC0FD01F
:100038001DB40DD01D84CD903C0E1B6E010E1C6EA0
:100048001D82E10ED76E7C0ED66ED58E02D001AC25
:100058001D9401AE10D01DB60ED01D86D59E0A0E79
:10006800196E1A6A020E1C6E1D820B0ECF6EDC0E04
:10007800CE6ECD8002D001AE1D96F29026D0F2A4AD
:100088000FD0F294E10ED76E7C0ED66E1B5000088E
:10009800D8A01B061B50000A02E1D59E1D9215D060
:1000A8009EA013D09E900B0ECF6EDC0ECE6E1A2A39
:1000B800040E1A5C0AE31A6A19500008D8A0190637
:1000C8001950000A02E1CD901D9218C000F017C027
:0C00D80001F016C00CF015C00DF0110076
:0600E40000000000120004
:1000EA000F0E0C6E470E0D6E0D2EFED70C2EFCD782
:0600FA00000000001200EE
:0A010000210E0D6E0D2EFED7120029
:10010A004CBE02D08A9601D08A864CBC02D08A9410
:10011A0001D08A844CBA02D08A9201D08A824CB821
:10012A0002D08A9001D08A801DB002D08A8801D07C
:10013A008A988A8AD2DF8A9A4CB602D08A9601D0E5
:10014A008A864CB402D08A9401D08A844CB202D0F6
:10015A008A9201D08A824CB002D08A9001D08A80D9
:10016A001DB002D08A8801D08A988A8AB6DF8A9A14
:0C017A001DA002D0B5DF01D0BEDF1200D6
:0C0186001D904BC04CF0BEDF1D8012002D
:100192000FD0800E466E19D0C00E466E16D0940E49
:1001A200466E13D0D40E466E10D0800E466E0DD021
:1001B2004650010AEEE04650020AEEE04650030ABB
:1001C200EEE04650040AEEE0F0D74704006E4650D7
:1001D200002600C046F000C04CF096DF1D904A6A2F
:1001E2004A504824E96E000E4920EA6EEE520BE0B6
:1001F2004A504824E96E000E4920EA6EEECF4BF0D9
:0A020200C1DF4A2AEDD71D8012006B
:10020C00086A080E0C6E003408360450085ED8B02C
:0E021C0002D00826D89000360C2EF5D712001E
:10022A00939A939893909392939493968A9A8A988E
:10023A008A968A948A928A9053DF52DF51DF8A82A1
:10024A008A808A8A4ADF8A9A4BDF8A8A46DF8A9AB2
:10025A0047DF8A8A42DF8A9A43DF8A908A8A3DDFA9
:10026A008A9A3EDF8A8A39DF8A9A8A928A868A8AB3
:10027A0034DF8A9A35DF8A968A808A8A2EDF8A9ABA
:10028A008A908A8A2ADF8A9A2BDF8A8A26DF8A9AC2
:10029A008A808A8A22DF8A9A23DF8A908A8A1DDFE5
:1002AA008A9A8A868A848A828A808A8A16DF8A9ABF
:0602BA0017DF1D80120099
:1002C0000900F5CFE6FF0006FBE10106F9E11200A7
:1002D000C282C2A201D0FDD7C4CF01F0006AC350D0
:0802E0000012000E01121200D1
:1002E8000B6A0A6A096A086A0E6A033408360450F7
:1002F800085E0550D8A0053C095E0650D8A0063C0B
:100308000A5E0750D8A0073C0B5EE86AD8A0010E29
:100318000E5E0336070E0C6E0334083609360A36AD
:100328000B360E36045003A012D0085E0550D8A034
:10033800053C095E0650D8A0063C0A5E0750D8A0C6
:10034800073C0B5EE86AD8A0010E0E5E11D00826A5
:100358000550D8B0053C09260650D8B0063C0A26F8
:100368000750D8B0073C0B26E86AD8B0010E0E2615
:1003780003360C2ED1D70234083609360A360B3626
:100388000E36045003A012D0085E0550D8A0053CD4
:10039800095E0650D8A0063C0A5E0750D8A0073C64
:1003A8000B5EE86AD8A0010E0E5E11D00826055033
:1003B800D8B0053C09260650D8B0063C0A26075096
:1003C800D8B0073C0B26E86AD8B0010E0E260236D4
:1003D800070E0C6E0234083609360A360B360E360E
:1003E800045002A012D0085E0550D8A0053C095E52
:1003F8000650D8A0063C0A5E0750D8A0073C0B5E02
:10040800E86AD8A0010E0E5E11D008260550D8B0B3
:10041800053C09260650D8B0063C0A260750D8B035
:10042800073C0B26E86AD8B0010E0E2602360C2EC1
:10043800D1D70134083609360A360B360E36045041
:1004480002A012D0085E0550D8A0053C095E0650EF
:10045800D8A0063C0A5E0750D8A0073C0B5EE86AA5
:10046800D8A0010E0E5E11D008260550D8B0053C64
:1004780009260650D8B0063C0A260750D8B0073CD3
:100488000B26E86AD8B0010E0E260136070E0C6E50
:100498000134083609360A360B360E36045001A0E8
:1004A80012D0085E0550D8A0053C095E0650D8A0B9
:1004B800063C0A5E0750D8A0073C0B5EE86AD8A045
:1004C800010E0E5E11D008260550D8B0053C09264D
:1004D8000650D8B0063C0A260750D8B0073C0B2671
:1004E800E86AD8B0010E0E2601360C2ED1D700349A
:1004F800083609360A360B360E36045001A012D0DB
:10050800085E0550D8A0053C095E0650D8A0063CF8
:100518000A5E0750D8A0073C0B5EE86AD8A0010E17
:100528000E5E11D008260550D8B0053C09260650A5
:10053800D8B0063C0A260750D8B0073C0B26E86A14
:10054800D8B0010E0E260036070E0C6E00340836A1
:1005580009360A360B360E36045000A012D0085E53
:100568000550D8A0053C095E0650D8A0063C0A5E96
:100578000750D8A0073C0B5EE86AD8A0010E0E5EB3
:1005880011D008260550D8B0053C09260650D8B029
:10059800063C0A260750D8B0073C0B26E86AD8B0B4
:1005A800010E0E2600360C2ED1D700B00ED0045006
:1005B80008260550D8B0053C09260650D8B0063C98
:0C05C8000A260750D8B0073C0B26120092
:1005D400220E0C6E086A096A0A6A0B6A0C06D8B401
:1005E4001FD0D8900B320A32093208320332023259
:1005F40001320032D8A0F2D70C06D8B409D0045086
:1006040008260550092206500A2207500B22EAD771
:10061400045008260550092206500A2207500B22CE
:020624001200C2
:100626000A0E196E1A6A3C0E1B6E1C6A940EF66E42
:10063600080EF76E000EF86E1E0EE16E000EE26EEC
:10064600220E006E010E016E38DE1B0EC16E8A0E82
:10065600C06E010EC26E070EB46E92809286938CA7
:10066600938E95908C90F286F28A9D80F28CF28E13
:10067600070ED56EB00ECD6E1D941D961D92D2DD61
:10068600010E4C6E3FDD0C0E4C6E3CDD1C50010A1B
:1006960003E11BC040F002D019C040F040C045F055
:1006A6001DA2C0D012DE000E026E036EE80E046EAE
:1006B600030E056E000E066E076E89DFFF0E046ED2
:1006C600030E056E000E066E076E0BDE00C041F0CF
:1006D60001C042F002C043F003C044F003500008DA
:1006E60008E10250000805E10150010802E100504E
:1006F600F40802E28C8001D08C900A0E046E45C08C
:1007060000F081DD300E002600C01EF00A0E046ED9
:1007160045C000F078DD08C000F0300E00241F6EE2
:10072600730E206E200E216EE80E046E030E056E0B
:10073600000E066E076E41C000F042C001F043C0D5
:1007460002F044C003F0CDDD300E002600C02FF0CD
:10075600640E046E000E056E066E076E41C000F054
:1007660042C001F043C002F044C003F0BADD0A0EF5
:10077600046E000E056E066E076EB3DD08C000F04F
:1007860009C001F00AC002F00BC003F0300E0024CD
:10079600306E0A0E046E000E056E066E076E41C0C0
:1007A60000F042C001F043C002F044C003F099DDFE
:1007B6000A0E046E000E056E066E076E92DD08C008
:1007C60000F009C001F00AC002F00BC003F0300EC1
:1007D6000024316E2E0E326E0A0E046E000E056E69
:1007E600066E076E41C000F042C001F043C002F041
:1007F60044C003F076DD08C000F009C001F00AC06D
:1008060002F00BC003F0300E0024336EDF0E346EA0
:10081600430E356E200E366E2F50300A02E1200E42
:100826002F6E15D08C90300E1E6E300E1F6E730E0E
:10083600206E4F0E2F6E460E306E460E316E200E17
:10084600326E200E336E200E346E200E356E010E83
:10085600466E010E476E1E0E486E000E496E96DC01
:10086600020E466E010E476E2F0E486E000E496E42
:100876008DDC030E0B6E080E0C6E770E0D6E0D2EB4
:0E088600FED70C2EFCD70B2EFAD700D7FFD7CB
:100894002020202020202020202020202020202054
:0108A4000053
:1008A5002020202020202020202020202020202043
:0108B5000042
:020000040030CA
:0E000000000C1F1EFF8381FF0FC00FE00F409A
:00000001FF
